{
  "_format": "hh-sol-artifact-1",
  "contractName": "BuyMeACoffee",
  "sourceName": "contracts/BuyMeACoffee.sol",
  "abi": [
    {
      "inputs": [],
      "stateMutability": "nonpayable",
      "type": "constructor"
    },
    {
      "anonymous": false,
      "inputs": [
        {
          "indexed": true,
          "internalType": "address",
          "name": "from",
          "type": "address"
        },
        {
          "indexed": false,
          "internalType": "uint256",
          "name": "timestamp",
          "type": "uint256"
        },
        {
          "indexed": false,
          "internalType": "string",
          "name": "name",
          "type": "string"
        },
        {
          "indexed": false,
          "internalType": "string",
          "name": "message",
          "type": "string"
        }
      ],
      "name": "MemoHis",
      "type": "event"
    },
    {
      "inputs": [
        {
          "internalType": "string",
          "name": "_name",
          "type": "string"
        },
        {
          "internalType": "string",
          "name": "_message",
          "type": "string"
        }
      ],
      "name": "buyCoffee",
      "outputs": [],
      "stateMutability": "payable",
      "type": "function"
    },
    {
      "inputs": [
        {
          "internalType": "address",
          "name": "newAdd",
          "type": "address"
        }
      ],
      "name": "changeWithdrawlAdd",
      "outputs": [],
      "stateMutability": "payable",
      "type": "function"
    },
    {
      "inputs": [],
      "name": "getMemos",
      "outputs": [
        {
          "components": [
            {
              "internalType": "address",
              "name": "from",
              "type": "address"
            },
            {
              "internalType": "uint256",
              "name": "timestamp",
              "type": "uint256"
            },
            {
              "internalType": "string",
              "name": "name",
              "type": "string"
            },
            {
              "internalType": "string",
              "name": "message",
              "type": "string"
            }
          ],
          "internalType": "struct BuyMeACoffee.Memo[]",
          "name": "",
          "type": "tuple[]"
        }
      ],
      "stateMutability": "view",
      "type": "function"
    },
    {
      "inputs": [],
      "name": "owner",
      "outputs": [
        {
          "internalType": "address payable",
          "name": "",
          "type": "address"
        }
      ],
      "stateMutability": "view",
      "type": "function"
    },
    {
      "inputs": [],
      "name": "withdrawTip",
      "outputs": [],
      "stateMutability": "nonpayable",
      "type": "function"
    }
  ],
  "bytecode": "0x608060405234801561001057600080fd5b50336000806101000a81548173ffffffffffffffffffffffffffffffffffffffff021916908373ffffffffffffffffffffffffffffffffffffffff160217905550610d5d806100606000396000f3fe60806040526004361061004a5760003560e01c8063204206e11461004f578063865c51721461006b5780638a7a868f146100965780638da5cb5b146100b2578063d9801146146100dd575b600080fd5b6100696004803603810190610064919061078b565b6100f4565b005b34801561007757600080fd5b5061008061027c565b60405161008d91906109f9565b60405180910390f35b6100b060048036038101906100ab9190610762565b61045f565b005b3480156100be57600080fd5b506100c7610530565b6040516100d491906109de565b60405180910390f35b3480156100e957600080fd5b506100f2610554565b005b60003411610137576040517f08c379a000000000000000000000000000000000000000000000000000000000815260040161012e90610a3b565b60405180910390fd5b600160405180608001604052803373ffffffffffffffffffffffffffffffffffffffff16815260200142815260200184815260200183815250908060018154018082558091505060019003906000526020600020906004020160009091909190915060008201518160000160006101000a81548173ffffffffffffffffffffffffffffffffffffffff021916908373ffffffffffffffffffffffffffffffffffffffff160217905550602082015181600101556040820151816002019080519060200190610206929190610642565b506060820151816003019080519060200190610223929190610642565b5050503373ffffffffffffffffffffffffffffffffffffffff167f900fc7bc1ec8efe2e75294e6eeb870bb35daaac97725784668023b0a0fa6b42242848460405161027093929190610a5b565b60405180910390a25050565b60606001805480602002602001604051908101604052809291908181526020016000905b8282101561045657838290600052602060002090600402016040518060800160405290816000820160009054906101000a900473ffffffffffffffffffffffffffffffffffffffff1673ffffffffffffffffffffffffffffffffffffffff1673ffffffffffffffffffffffffffffffffffffffff1681526020016001820154815260200160028201805461033390610bec565b80601f016020809104026020016040519081016040528092919081815260200182805461035f90610bec565b80156103ac5780601f10610381576101008083540402835291602001916103ac565b820191906000526020600020905b81548152906001019060200180831161038f57829003601f168201915b505050505081526020016003820180546103c590610bec565b80601f01602080910402602001604051908101604052809291908181526020018280546103f190610bec565b801561043e5780601f106104135761010080835404028352916020019161043e565b820191906000526020600020905b81548152906001019060200180831161042157829003601f168201915b505050505081525050815260200190600101906102a0565b50505050905090565b60008054906101000a900473ffffffffffffffffffffffffffffffffffffffff1673ffffffffffffffffffffffffffffffffffffffff163373ffffffffffffffffffffffffffffffffffffffff16146104ed576040517f08c379a00000000000000000000000000000000000000000000000000000000081526004016104e490610a1b565b60405180910390fd5b806000806101000a81548173ffffffffffffffffffffffffffffffffffffffff021916908373ffffffffffffffffffffffffffffffffffffffff16021790555050565b60008054906101000a900473ffffffffffffffffffffffffffffffffffffffff1681565b60008054906101000a900473ffffffffffffffffffffffffffffffffffffffff1673ffffffffffffffffffffffffffffffffffffffff163373ffffffffffffffffffffffffffffffffffffffff16146105e2576040517f08c379a00000000000000000000000000000000000000000000000000000000081526004016105d990610a1b565b60405180910390fd5b60008054906101000a900473ffffffffffffffffffffffffffffffffffffffff1673ffffffffffffffffffffffffffffffffffffffff166108fc479081150290604051600060405180830381858888f1935050505061064057600080fd5b565b82805461064e90610bec565b90600052602060002090601f01602090048101928261067057600085556106b7565b82601f1061068957805160ff19168380011785556106b7565b828001600101855582156106b7579182015b828111156106b657825182559160200191906001019061069b565b5b5090506106c491906106c8565b5090565b5b808211156106e15760008160009055506001016106c9565b5090565b60006106f86106f384610ac5565b610aa0565b90508281526020810184848401111561071057600080fd5b61071b848285610baa565b509392505050565b60008135905061073281610d10565b92915050565b600082601f83011261074957600080fd5b81356107598482602086016106e5565b91505092915050565b60006020828403121561077457600080fd5b600061078284828501610723565b91505092915050565b6000806040838503121561079e57600080fd5b600083013567ffffffffffffffff8111156107b857600080fd5b6107c485828601610738565b925050602083013567ffffffffffffffff8111156107e157600080fd5b6107ed85828601610738565b9150509250929050565b60006108038383610956565b905092915050565b61081481610b6e565b82525050565b61082381610b5c565b82525050565b600061083482610b06565b61083e8185610b29565b93508360208202850161085085610af6565b8060005b8581101561088c578484038952815161086d85826107f7565b945061087883610b1c565b925060208a01995050600181019050610854565b50829750879550505050505092915050565b60006108a982610b11565b6108b38185610b3a565b93506108c3818560208601610bb9565b6108cc81610cad565b840191505092915050565b60006108e282610b11565b6108ec8185610b4b565b93506108fc818560208601610bb9565b61090581610cad565b840191505092915050565b600061091d601683610b4b565b915061092882610cbe565b602082019050919050565b6000610940601c83610b4b565b915061094b82610ce7565b602082019050919050565b600060808301600083015161096e600086018261081a565b50602083015161098160208601826109c0565b5060408301518482036040860152610999828261089e565b915050606083015184820360608601526109b3828261089e565b9150508091505092915050565b6109c981610ba0565b82525050565b6109d881610ba0565b82525050565b60006020820190506109f3600083018461080b565b92915050565b60006020820190508181036000830152610a138184610829565b905092915050565b60006020820190508181036000830152610a3481610910565b9050919050565b60006020820190508181036000830152610a5481610933565b9050919050565b6000606082019050610a7060008301866109cf565b8181036020830152610a8281856108d7565b90508181036040830152610a9681846108d7565b9050949350505050565b6000610aaa610abb565b9050610ab68282610c1e565b919050565b6000604051905090565b600067ffffffffffffffff821115610ae057610adf610c7e565b5b610ae982610cad565b9050602081019050919050565b6000819050602082019050919050565b600081519050919050565b600081519050919050565b6000602082019050919050565b600082825260208201905092915050565b600082825260208201905092915050565b600082825260208201905092915050565b6000610b6782610b80565b9050919050565b6000610b7982610b80565b9050919050565b600073ffffffffffffffffffffffffffffffffffffffff82169050919050565b6000819050919050565b82818337600083830152505050565b60005b83811015610bd7578082015181840152602081019050610bbc565b83811115610be6576000848401525b50505050565b60006002820490506001821680610c0457607f821691505b60208210811415610c1857610c17610c4f565b5b50919050565b610c2782610cad565b810181811067ffffffffffffffff82111715610c4657610c45610c7e565b5b80604052505050565b7f4e487b7100000000000000000000000000000000000000000000000000000000600052602260045260246000fd5b7f4e487b7100000000000000000000000000000000000000000000000000000000600052604160045260246000fd5b6000601f19601f8301169050919050565b7f20796f75206d75737420626520746865206f776e657200000000000000000000600082015250565b7f506c656173652070726f7669646520612076616c69642076616c756500000000600082015250565b610d1981610b5c565b8114610d2457600080fd5b5056fea26469706673582212205003c0a8d7d68e9bea81f92c04e79f43d9e69b8db8481d9a9635368e2b74673064736f6c63430008040033",
  "linkReferences": {},
  "deployedLinkReferences": {}
}